:100000000C94DD000C9405010C9405010C94050181
:100010000C9405010C9405010C9405010C94050148
:100020000C9405010C9405010C9405010C94050138
:100030000C9405010C9405010C9405010C94050128
:100040000C946C060C9405010C943A060C9414065E
:100050000C9405010C9405010C9405010C94050108
:100060000C9405010C94050100407A10F35A00A08D
:10007000724E18090010A5D4E80000E87648170071
:1000800000E40B54020000CA9A3B000000E1F505B1
:10009000000080969800000040420F000000A086FB
:1000A00001000000102700000000E803000000002D
:1000B0006400000000000A000000000001000000D1
:1000C00000002C76D888DC674F0823DFC1DFAE59EB
:1000D000E1B1B796E5E3E453C63AE651997696E87E
:1000E000E6C28426EB898C9B62ED407C6FFCEFBC02
:1000F0009C9F40F2BAA56FA5F490055A2AF75C932D
:100100006B6CF9676DC11BFCE0E40D47FEF520E662
:10011000B500D0ED902E0300943577050080841E45
:10012000080000204E0A000000C80C333333330FA0
:10013000986E12831141EF8D2114893BE65516CF3D
:10014000FEE6DB18D1844B381BF77C1D901DA4BB49
:10015000E424203284725E228100C9F124ECA1E5FE
:100160003D273A0040003A0000000000240027002C
:100170002A0000000000250028002B0004040404CD
:100180000404040402020202020203030303030341
:10019000010204081020408001020408102001021E
:1001A00004081020000000080002010000030407FA
:1001B0000000000000000000210811241FBECFEF46
:1001C000D8E0DEBFCDBF21E0A0E3B1E001C01D92C9
:1001D000AA3FB207E1F711E0A0E0B1E0E2EAFFE1F7
:1001E00002C005900D92A033B107D9F710E0CDED14
:1001F000D0E004C02197FE010E94D70DCC3DD1076D
:10020000C9F70E9464080C94CF0F0C940000DB0126
:1002100014964D915C9115976D917C91DC01ED9157
:10022000FC910280F381E02D0994EF92FF920F93ED
:100230001F93CF93DF938C017B01D0E0C0E0F701E7
:10024000EC0FFD1F6491662361F0D801ED91FC91E4
:100250000190F081E02DC8010995892B11F02196BC
:10026000EECFCE01DF91CF911F910F91FF90EF90D4
:100270000895AF92BF92CF92DF92EF92FF920F93C9
:100280001F93CF93DF936C017B018B01040F151F2C
:10029000EB015E01AE18BF08C017D10759F0699194
:1002A000D601ED91FC910190F081E02DC6010995F8
:1002B000892B79F7C501DF91CF911F910F91FF90A5
:1002C000EF90DF90CF90BF90AF900895FC01538DD9
:1002D000448D252F30E0842F90E0821B930B541720
:1002E00010F0CF96089501970895FC01918D828DAD
:1002F000981761F0A28DAE0FBF2FB11D5D968C9146
:10030000928D9F5F9F73928F90E008958FEF9FEF84
:100310000895FC01918D828D981731F0828DE80F40
:10032000F11D858D90E008958FEF9FEF0895FC01FA
:10033000918D228D892F90E0805C9F4F821B9109C7
:100340008F739927089589E391E00E94970121E036
:10035000892B09F420E0822F089580E090E0892B1A
:1003600029F00E94A30181110C9400000895FC0162
:10037000A48DA80FB92FB11DA35ABF4F2C91848D06
:1003800090E001968F739927848FA689B7892C9363
:10039000A089B1898C91837080648C93938D848DB6
:1003A000981306C00288F389E02D80818F7D8083B9
:1003B0000895EF92FF920F931F93CF93DF93EC0179
:1003C00081E0888F9B8D8C8D98131AC0E889F989FC
:1003D000808185FF15C09FB7F894EE89FF896083FF
:1003E000E889F98980818370806480839FBF81E080
:1003F00090E0DF91CF911F910F91FF90EF900895C2
:10040000F62E0B8D10E00F5F1F4F0F731127E02E9C
:100410008C8D8E110CC00FB607FCFACFE889F989D4
:10042000808185FFF5CFCE010E94B701F1CFEB8D22
:10043000EC0FFD2FF11DE35AFF4FF0829FB7F894A8
:100440000B8FEA89FB8980818062CFCFCF93DF93C6
:10045000EC01888D8823B9F0AA89BB89E889F989DC
:100460008C9185FD03C0808186FD0DC00FB607FC11
:10047000F7CF8C9185FFF2CF808185FFEDCFCE0144
:100480000E94B701E9CFDF91CF91089590E0FC0180
:10049000EC55FE4F2491FC01E057FE4F3491FC01D6
:1004A000E458FE4FE491EE23C9F0222339F02330C3
:1004B00001F1A8F4213019F1223029F1F0E0EE0F1A
:1004C000FF1FEE58FE4FA591B4918FB7F894EC91B1
:1004D000611126C030953E233C938FBF089527308D
:1004E000A9F02830C9F0243049F7809180008F7D31
:1004F00003C0809180008F7780938000DFCF84B528
:100500008F7784BDDBCF84B58F7DFBCF8091B0002A
:100510008F778093B000D2CF8091B0008F7DF9CFDC
:100520003E2BDACF482F50E0FA01E057FE4F94916E
:10053000FA01E458FE4F2491222399F030E0220F73
:10054000331FF901E859FE4FA591B491F901EE5816
:10055000FE4F259134912FB7F894EC91E92BEC9351
:100560002FBF6115710519F460E00C9446026F3FCE
:10057000710511F461E0F9CFFA01EC55FE4FE491F9
:10058000E33019F140F4E130B1F0E230C9F0603805
:10059000710584F7E9CFE73011F1E83041F1E4303B
:1005A000B1F78091800080628093800070938B000F
:1005B00060938A00089584B5806884BD67BD0895FE
:1005C00084B5806284BD68BD089580918000806894
:1005D00080938000709389006093880008958091D3
:1005E000B00080688093B0006093B300089580915C
:1005F000B00080628093B0006093B40008958E30A4
:1006000008F08E508770806480937C0080917A001F
:10061000806480937A0080917A0086FDFCCF80917F
:1006200078009091790008953FB7F8948091350152
:1006300090913601A0913701B091380126B5A89B61
:1006400005C02F3F19F00196A11DB11D3FBFBA2F64
:10065000A92F982F8827BC01CD01620F711D811D24
:10066000911D42E0660F771F881F991F4A95D1F7A9
:1006700008958F929F92AF92BF92CF92DF92EF92A6
:10068000FF926B017C010E9414034B015C01C114B9
:10069000D104E104F104B9F00E9414036819790946
:1006A0008A099B09683E73408105910580F321E02A
:1006B000C21AD108E108F10888EE880E83E0981E7E
:1006C000A11CB11CE4CFFF90EF90DF90CF90BF90C2
:1006D000AF909F908F9008954F925F926F927F920C
:1006E0008F929F92AF92BF92CF92DF92EF92FF9242
:1006F000CF93DF93CDB7DEB72A970FB6F894DEBF5E
:100700000FBECDBF9A8789878FB7F894409031018B
:100710005090320160903301709034018FBFE985B1
:10072000FA85628D70E090E080E00E94470BE985D9
:10073000FA8526893789408D518D0E949B0C6B016B
:100740007C01E985FA85848D958DA68DB78DA301F1
:100750009201281B390B4A0B5B0BCA01B9010E949D
:10076000450B69837A838B839C83A70196010E9442
:10077000A60BE985FA8526813781408551850E943F
:100780009C0C4B015C01E985FA8586829782A086E4
:10079000B1862285338544855585C701B6010E94FF
:1007A000A60B6D837E838F839887E985FA852685DE
:1007B000378540895189C501B4010E94A60B9B0170
:1007C000AC016D817E818F8198850E949C0C4B01CC
:1007D0005C01E985FA852281338144815581C70115
:1007E000B6010E949B0C29813A814B815C810E9459
:1007F000080DE985FA8522893389448955890E9443
:10080000A60B9B01AC01C501B4010E949C0C4B01DD
:100810005C0120E030E0A9010E94400B87FF22C06C
:10082000E985FA85138EE985FA85C282D382E4824E
:10083000F582448E558E668E778E2A960FB6F89482
:10084000DEBF0FBECDBFDF91CF91FF90EF90DF9065
:10085000CF90BF90AF909F908F907F906F905F9060
:100860004F90089520E030E04FE753E4C501B40114
:100870000E94B00D18162CF48FEFE985FA85838F4E
:10088000D2CFC501B4010E947A0DE985FA85638F44
:10089000CACFFC01608341830895CF92DF92EF922B
:1008A000FF92CF93DF93EC016A017B01E889F9891C
:1008B00082E08083C11481EED806E104F104A1F046
:1008C00060E079E08DE390E0A70196010E94B50D0C
:1008D000215031094109510956954795379527957A
:1008E000211580E1380798F0E889F989108260E8DD
:1008F00074E88EE190E0A70196010E94B50D2150A9
:100900003109410951095695479537952795EC8549
:10091000FD853083EE85FF852083188EEC89FD8967
:1009200086E08083EA89FB89808180618083EA890F
:10093000FB89808188608083EA89FB898081806867
:100940008083EA89FB8980818F7D8083DF91CF91CD
:10095000FF90EF90DF90CF900895FC01808191810E
:10096000009711F00C94790E0895EF92FF920F9377
:100970001F93CF93DF93EC017B018A0188819981DA
:10098000009729F02A813B812417350788F4B801A4
:100990006F5F7F4F0E94020F009791F099838883C9
:1009A0001B830A832C813D81232B11F4FC011082CF
:1009B0001D830C83B701888199810E94C80F0CC0E8
:1009C00088819981009711F00E94790E198218820E
:1009D0001D821C821B821A82CE01DF91CF911F9152
:1009E0000F91FF90EF900895EF92FF920F931F9356
:1009F000CF93DF93CDB7DEB7A1970FB6F894DEBFE4
:100A00000FBECDBF7C01CB01BA01F701118210826C
:100A1000138212821582148242E0420F8E010F5F10
:100A20001F4F0E94B6080097C9F0FC0101900020FA
:100A3000E9F73197AF01481B590BBC01C7010E9470
:100A4000B504A1960FB6F894DEBF0FBECDBFDF91FF
:100A5000CF911F910F91FF90EF900895F701808142
:100A60009181009711F00E94790EF7011182108296
:100A70001582148213821282E4CFFC01118210824B
:100A800013821282158214826115710551F0FB01E7
:100A900001900020E9F73197AF01461B570B0C94EA
:100AA000B5040895FB0101900020E9F73197AF01EB
:100AB000461B570BDC01ED91FC910280F381E02D88
:100AC0000994AF92BF92CF92DF92EF92FF920F9371
:100AD0001F93CF93DF93CDB7DEB7A1970FB6F894EE
:100AE000DEBF0FBECDBF8C01F42FE52FCB0121154A
:100AF000310519F5D8018D919C91DC012D913C9126
:100B0000642FC801F90109957C016AE171E0C8010F
:100B10000E9452058E0D9F1DA1960FB6F894DEBF60
:100B20000FBECDBFDF91CF911F910F91FF90EF903E
:100B3000DF90CF90BF90AF90089519A2223008F4B3
:100B40002AE05E0131E2A30EB11CC22ED12CF12CA1
:100B5000E12C6F2F7E2FA70196010E94B50DF22F79
:100B6000E32FCA016A308CF4605DD5016E935D019C
:100B7000232B242B252B69F7F12CE12C109729F23C
:100B8000BD01C8010E945205BFCF695CEECF0F9333
:100B90001F93CF93DF93EC010E9407018C016AE160
:100BA00071E0CE010E945205800F911FDF91CF911D
:100BB0001F910F910895EF92FF920F931F93CF9380
:100BC000DF93CDB7DEB729970FB6F894DEBF0FBE1F
:100BD000CDBF8C01862FF801118210821382128200
:100BE0001582148250E09E012F5F3F4F7901B901B9
:100BF00090E00E94D408F70101900020E9F73197B6
:100C0000AF014E195F09B701C8010E94B5042996CA
:100C10000FB6F894DEBF0FBECDBFDF91CF911F910D
:100C20000F91FF90EF9008951F920F920FB60F92C1
:100C300011242F933F934F935F936F937F938F93E1
:100C40009F93AF93BF93EF93FF9389E391E00E944B
:100C5000B701FF91EF91BF91AF919F918F917F91DC
:100C60006F915F914F913F912F910F900FBE0F9019
:100C70001F9018951F920F920FB60F9211242F9369
:100C80008F939F93EF93FF93E0914901F0914A0175
:100C90008081E0914F01F091500182FD1BC0908155
:100CA000809152018F5F8F7320915301821741F021
:100CB000E0915201F0E0E75CFE4F958F8093520186
:100CC000FF91EF919F918F912F910F900FBE0F90F9
:100CD0001F9018958081F4CF1F920F920FB60F923C
:100CE00011242F933F938F939F93AF93BF93809142
:100CF000310190913201A0913301B09134013091D2
:100D0000300123E0230F2D3758F50196A11DB11DA9
:100D1000209330018093310190933201A0933301ED
:100D2000B09334018091350190913601A091370143
:100D3000B09138010196A11DB11D809335019093AA
:100D40003601A0933701B0933801BF91AF919F91C5
:100D50008F913F912F910F900FBE0F901F9018957C
:100D600026E8230F0296A11DB11DD2CFCF93DF93AA
:100D7000CDB7DEB78EE00E94FF02092E000CAA0B51
:100D8000BB0BBC01CD010E94470BDC01CB0120E075
:100D900030EC4FE754E4BC01CD010E94080DDC01AA
:100DA000CB0120E030E040EA50E4BC01CD010E94DC
:100DB000A60BDC01CB0120E030E040EA51E4BC01AD
:100DC000CD010E94A60BDC01CB01BC01CD01DF915E
:100DD000CF910895CF93DF93CDB7DEB740E855E2CA
:100DE00060E070E089E391E00E944D0482E380932B
:100DF000F0014FEF60E086ED91E00E944904DF9141
:100E0000CF910895CF93DF93CDB7DEB728970FB674
:100E1000F894DEBF0FBECDBF9A8389837C836B833A
:100E20002D833E834F83588789819A81BC0189E352
:100E300091E00E94070186E691E0BC0189E391E020
:100E40000E9415018B819C81BC0189E391E00E9485
:100E5000070184E691E0BC0189E391E00E9415015D
:100E60008D819E81AF81B8852AE030E0AC01BD0163
:100E700089E391E00E94610528960FB6F894DEBFE1
:100E80000FBECDBFDF91CF910895CF92DF92EF9249
:100E9000FF92CF93DF93CDB7DEB7A4970FB6F89448
:100EA000DEBF0FBECDBF0E94B606DC01CB01809332
:100EB000EC019093ED01A093EE01B093EF0186ED6C
:100EC00091E00E946C0364E670E080E090E00E9494
:100ED00039038091F101882F90E0BC018BE00E94E2
:100EE0009202C090F201D090F301E090F401F090F2
:100EF000F5012091F001CE014F964AE0622F0E9449
:100F0000DB05CE0149966DE171E00E943D05BE0111
:100F1000615E7F4FCE014996A70196010E940207AC
:100F2000CE0149960E94AD04CE014F960E94AD04B9
:100F3000C090F201D090F301E090F401F090F5013F
:100F40008091EC019091ED01A091EE01B091EF0143
:100F5000FE01739622E0AC01BD01CF010E94F404B2
:100F6000CE010D9666E271E00E943D05BE016D5E08
:100F70007F4FCE010D96A70196010E940207CE0178
:100F80000D960E94AD04CE0143960E94AD04C09020
:100F9000F201D090F301E090F401F090F50120917E
:100FA000F101CE0107964AE0622F0E94DB056BE259
:100FB00071E0CE0101960E943D05CE010796A70182
:100FC0009601BC01CE0101960E940207CE01019656
:100FD0000E94AD04CE0107960E94AD04A4960FB600
:100FE000F894DEBF0FBECDBFDF91CF91FF90EF90A1
:100FF000DF90CF900895CF93DF9300D000D0CDB78E
:10100000DEB79A8389837C836B8389819A81BC0153
:1010100089E391E00E94070182E691E0BC0189E347
:1010200091E00E9415018B819C81BC0189E391E0D4
:101030000E94C7050F900F900F900F90DF91CF91F6
:101040000895E9E3F1E01382128288EE93E0A0E0D4
:10105000B0E084839583A683B7838CE091E091838D
:10106000808385EC90E09587848784EC90E0978777
:10107000868780EC90E0918B808B81EC90E0938B65
:10108000828B82EC90E0958B848B86EC90E0978B42
:10109000868B118E128E138E148EE6EDF1E080E0B9
:1010A00090E0A0EAB0E482879387A487B58782E5C1
:1010B00099E4ADE9B9E386879787A08BB18B128A53
:1010C000138A148A158A0895789484B5826084BD41
:1010D00084B5816084BD85B5826085BD85B581603C
:1010E00085BD80916E00816080936E0010928100BA
:1010F0008091810082608093810080918100816075
:101100008093810080918000816080938000809135
:10111000B10084608093B1008091B00081608093C1
:10112000B00080917A00846080937A0080917A0088
:10113000826080937A0080917A00816080937A0047
:1011400080917A00806880937A001092C1000E949A
:10115000EA06C0E0D0E00E9445072097E1F30E9434
:10116000A3018823C1F30E940000F5CFEF920F93F3
:101170001F93CF93DF93E80134E047FD34E1042E61
:10118000000C550B57FF03C0519541955109E32EB3
:10119000022F242FAE010E94F908CE01DF91CF91DA
:1011A0001F910F91EF9008954532510520F4423080
:1011B00010F00C94DF08FB011082CB010895BB27CF
:1011C000FB015527AA27880F991FAA1FA41710F003
:1011D000A41B83955051B9F7A05DAA3308F0A95D0F
:1011E000A193009779F7B111B1931192CB010C94AF
:1011F000300BA9E0B0E0EFEFF8E00C946A0C6A0164
:10120000F22EB02E102FFBE3AF2EA01608F41BE336
:101210001F5F012F27E0AE014F5F5F4F0E94580A0A
:10122000BC018981982F9970913009F43FC09BE2ED
:10123000E1FC04C09E2D9170E0FC3AC05E2D50711F
:10124000E82FE87083FF46C084E0911101C083E07D
:10125000EF2DE81B8F1508F0E0E0D6018E2F20E27D
:10126000552351F1992329F0D6019C93C60101968B
:101270006C0196012D5F3F4FE2FE24C08EE4D60143
:101280008C9391E411969C93119712968C93D901AB
:101290008E2F90E281111BC0E20FF32FF11D1082FF
:1012A0008EEF9FEF2996ECE00C94860C9DE2C6CF62
:1012B00090E2C4CF2D9381508111FCCFCE0ED11C72
:1012C000E0E0D0CF8EE6D6018C9391E6DBCF9D9304
:1012D0008150E0CF482F447082FF3DC084E09111DF
:1012E00001C083E08F1510F4EF2DE81BD6018E2F7F
:1012F00020E2552309F1992329F0D6019C93C601D8
:1013000001966C0196012D5F3F4FE2FE1BC089E400
:10131000D6018C938EE411968C93119786E41296E5
:101320008C93D9018E2F90E2882309F4B5CF9D9339
:101330008150FACF2D9381508111FCCFCE0ED11C5C
:10134000E0E0D9CF89E6D6018C938EE611968C9396
:10135000119786E6E4CF9B0177FF02C030E020E0E2
:10136000A1E0B0E0911102C0B0E0A0E0F901319637
:10137000AE0FBF1F8B2C912CBB2009F461C0540110
:10138000EFEFAE1ABE0AAA0DBB1DFA161B0619F026
:1013900014F04F2D4A1B511188C0E3FC59C076014F
:1013A000A42FB0E2A1114FC0C40ED11C992309F49F
:1013B0005BC040E0D6011196F60190836D01552384
:1013C00009F448C0012F060F9A81582F507184FFED
:1013D00003C0913309F4015010160CF047C00930D6
:1013E00008F008E0EEE2FE2E5B01A01AB1088501CC
:1013F0009194819491082F3F320729F4D601FC92F1
:10140000F60131966F016217730794F10217130703
:101410007CF5DB01A21BB30BAA24A394B12CAC0E68
:10142000BD1EAA0DBB1D11968C9121503109D6010C
:10143000119628153905F4F0F60180836D01DBCF94
:10144000B12CA12CA0CFF701B1937F01A150AACF5D
:101450009111B0CFD601942F50E302C05D9391500B
:101460009111FCCFC40ED11C40E0ACCF01E0BACF4B
:1014700080E3DBCF6217730731F4963388F495333A
:1014800011F4552369F0F6018083FD01842F90E269
:10149000811108C0A40FB11D1C9290E080E002CF22
:1014A00081E3F1CF91938150F3CF911183CF8ACF14
:1014B000283008F027E03327DA01990F311D87FD26
:1014C000916000966105710539F432602E5F3D939D
:1014D00030E32A95E1F708959F3F30F08038710599
:1014E000610509F03C5F3C5F3D93913008F08068F6
:1014F000911DDF93CF931F930F93FF92EF92192FBC
:10150000987F9695E92F96959695E90FFF27EE53CC
:10151000FF4F99273327EE24FF24A701E701059009
:101520000894079428F4360FE71EF81E491F511D32
:10153000660F771F881F991F0694A1F705900794DF
:1015400028F4E70EF81E491F561FC11D770F881F8C
:10155000991F661F0694A1F70590079428F4F80ECA
:10156000491F561FC71FD11D880F991F661F771F60
:101570000694A1F70590079420F4490F561FC71F42
:10158000D81F990F661F771F881F0694A9F78491AB
:101590001095177041F0D695C79557954795F794D4
:1015A000E7941A95C1F7E8E6F0E068941590159174
:1015B00035916591959105907FE27395E118F10A57
:1015C000430B560BC90BD009C0F7E10CF11E431FAA
:1015D000561FC91FD01D7EF4703311F48A95E6CFD3
:1015E000E894015030F0080F0AF40027021708F4BD
:1015F000202F2395022F7A3328F079E37D932A95C3
:10160000E9F710C07D932A9589F60694979567951A
:10161000379517951794E118F10A430B560BC90B30
:10162000D00998F023957E9173957A3308F070E392
:101630007C932013B8F77E9170617D9330F0839591
:1016400071E37D9370E32A95E1F71124EF90FF9009
:101650000F911F91CF91DF91992787FD9095089564
:10166000DC01FC01672F71917723E1F7329704C009
:101670007C916D9370836291AE17BF07C8F3089594
:101680000E94820B08F481E00895E89409C097FB5A
:101690003EF490958095709561957F4F8F4F9F4F49
:1016A0009923A9F0F92F96E9BB279395F69587958D
:1016B00077956795B795F111F8CFFAF4BB0F11F450
:1016C00060FF1BC06F5F7F4F8F4F9F4F16C08823F7
:1016D00011F096E911C0772321F09EE8872F762F2D
:1016E00005C0662371F096E8862F70E060E02AF06E
:1016F0009A95660F771F881FDAF7880F969587955A
:1017000097F90895990F0008550FAA0BE0E8FEEF2E
:1017100016161706E807F907C0F012161306E407B5
:10172000F50798F0621B730B840B950B39F40A26AE
:1017300061F0232B242B252B21F408950A2609F48C
:10174000A140A6958FEF811D811D08950E94B90BC0
:101750000C942A0C0E941C0C38F00E94230C20F0E0
:10176000952311F00C94130C0C94190C11240C9467
:101770005E0C0E943B0C70F3959FC1F3950F50E0F7
:10178000551F629FF001729FBB27F00DB11D639F33
:10179000AA27F00DB11DAA1F649F6627B00DA11DD9
:1017A000661F829F2227B00DA11D621F739FB00D7F
:1017B000A11D621F839FA00D611D221F749F3327EF
:1017C000A00D611D231F849F600D211D822F762F88
:1017D0006A2F11249F5750409AF0F1F088234AF065
:1017E000EE0FFF1FBB1F661F771F881F91505040D1
:1017F000A9F79E3F510580F00C94130C0C945E0CDD
:101800005F3FE4F3983ED4F3869577956795B79557
:10181000F795E7959F5FC1F7FE2B880F911D969571
:10182000879597F9089597F99F6780E870E060E0E1
:1018300008959FEF80EC089500240A941616170669
:1018400018060906089500240A94121613061406B1
:1018500005060895092E0394000C11F4882352F014
:10186000BB0F40F4BF2B11F460FF04C06F5F7F4FCC
:101870008F4F9F4F089557FD9058440F551F59F0B3
:101880005F3F71F04795880F97FB991F61F09F3F6D
:1018900079F087950895121613061406551FF2CF96
:1018A0004695F1DF08C0161617061806991FF1CFE6
:1018B00086957105610508940895E894BB2766270D
:1018C0007727CB0197F908952F923F924F925F921D
:1018D0006F927F928F929F92AF92BF92CF92DF9240
:1018E000EF92FF920F931F93CF93DF93CDB7DEB7A5
:1018F000CA1BDB0B0FB6F894DEBF0FBECDBF099439
:101900002A88398848885F846E847D848C849B848F
:10191000AA84B984C884DF80EE80FD800C811B819D
:10192000AA81B981CE0FD11D0FB6F894DEBF0FBECC
:10193000CDBFED0108955058BB27AA270E94B30CD4
:101940000C942A0C0E941C0C38F00E94230C20F0EE
:1019500039F49F3F19F426F40C94190C0EF4E09519
:10196000E7FB0C94130CE92F0E943B0C58F3BA17B9
:10197000620773078407950720F079F4A6F50C94A5
:101980005D0C0EF4E0950B2EBA2FA02D0B01B901C2
:1019900090010C01CA01A0011124FF27591B99F0E5
:1019A000593F50F4503E68F11A16F040A22F232FF1
:1019B000342F4427585FF3CF469537952795A79541
:1019C000F0405395C9F77EF41F16BA0B620B730BE8
:1019D000840BBAF09150A1F0FF0FBB1F661F771F59
:1019E000881FC2F70EC0BA0F621F731F841F48F40E
:1019F000879577956795B795F7959E3F08F0B0CF97
:101A00009395880F08F09927EE0F9795879508957D
:101A10000E941C0D0C942A0C0E94230C58F00E946A
:101A20001C0C40F029F45F3F29F00C94130C511169
:101A30000C945E0C0C94190C0E943B0C68F39923D7
:101A4000B1F3552391F3951B550BBB27AA276217BA
:101A50007307840738F09F5F5F4F220F331F441FC7
:101A6000AA1FA9F335D00E2E3AF0E0E832D09150FB
:101A70005040E695001CCAF72BD0FE2F29D0660FE8
:101A8000771F881FBB1F261737074807AB07B0E82B
:101A900009F0BB0B802DBF01FF2793585F4F3AF031
:101AA0009E3F510578F00C94130C0C945E0C5F3F34
:101AB000E4F3983ED4F3869577956795B795F795B7
:101AC0009F5FC9F7880F911D9695879597F908959F
:101AD000E1E0660F771F881FBB1F6217730784073B
:101AE000BA0720F0621B730B840BBA0BEE1F88F74A
:101AF000E09508950E94810D6894B1110C945E0CDC
:101B000008950E94430C88F09F5798F0B92F9927A9
:101B1000B751B0F0E1F0660F771F881F991F1AF0D8
:101B2000BA95C9F714C0B13091F00E945D0CB1E0D4
:101B300008950C945D0C672F782F8827B85F39F0D3
:101B4000B93FCCF3869577956795B395D9F73EF471
:101B500090958095709561957F4F8F4F9F4F089519
:101B60000E94820B08F48FEF0895A1E21A2EAA1B9F
:101B7000BB1BFD010DC0AA1FBB1FEE1FFF1FA2173D
:101B8000B307E407F50720F0A21BB30BE40BF50B3A
:101B9000661F771F881F991F1A9469F760957095C3
:101BA000809590959B01AC01BD01CF010895EE0F8A
:101BB000FF1F0590F491E02D09940F931F93CF938D
:101BC000DF938230910510F482E090E0E091F8011B
:101BD000F091F90130E020E0B0E0A0E0309799F416
:101BE0002115310509F44AC0281B390B2430310571
:101BF000D8F58A819B816115710589F1FB01938379
:101C00008283FE0111C040815181028113814817F6
:101C10005907E0F04817590799F4109761F01296A8
:101C20000C93129713961C933296CF01DF91CF91AC
:101C30001F910F9108950093F8011093F901F4CFCB
:101C40002115310551F04217530738F0A901DB0186
:101C50009A01BD01DF01F801C1CFEF01F9CF9093E7
:101C6000F9018093F801CDCFFE01E20FF31F8193BC
:101C700091932250310939832883D7CF2091F601DF
:101C80003091F701232B41F420910201309103019F
:101C90003093F7012093F60120910001309101016A
:101CA0002115310541F42DB73EB740910401509103
:101CB0000501241B350BE091F601F091F701E217C5
:101CC000F307A0F42E1B3F0B2817390778F0AC015F
:101CD0004E5F5F4F2417350748F04E0F5F1F50933C
:101CE000F7014093F601819391939FCFF0E0E0E0FC
:101CF0009CCFCF93DF930097E9F0FC0132971382DA
:101D00001282A091F801B091F901ED0130E020E0DC
:101D10001097A1F420813181820F931F2091F60149
:101D20003091F7012817390709F061C0F093F701E6
:101D3000E093F601DF91CF910895EA01CE17DF0716
:101D4000E8F54A815B819E0141155105B1F7E90132
:101D5000FB83EA8349915991C40FD51FEC17FD0706
:101D600061F4808191810296840F951FE901998326
:101D70008883828193819B838A83F0E0E0E01296DE
:101D80008D919C9113970097B9F52D913C911197E6
:101D9000CD010296820F931F2091F6013091F70139
:101DA0002817390739F6309751F51092F90110923A
:101DB000F801B093F701A093F601BCCFD383C2839F
:101DC00040815181840F951FC817D90761F44E5F78
:101DD0005F4F88819981480F591F518340838A81C1
:101DE0009B81938382832115310509F0B0CFF09355
:101DF000F901E093F8019ECFFD01DC01C0CF138211
:101E00001282D7CFB0E0A0E0E8E0FFE00C94660CCF
:101E10008C01009751F4CB010E94DD0D8C01C801AB
:101E2000CDB7DEB7E0E10C94820CFC01E60FF71FA2
:101E30009C0122503109E217F30708F49DC0D90133
:101E4000CD91DC911197C617D70798F0C530D10511
:101E500030F3CE0104978617970708F3C61BD70BFC
:101E60002297C193D1936D937C93CF010E94790EF9
:101E7000D6CF5B01AC1ABD0A4C018C0E9D1EA09101
:101E8000F801B091F901512C412CF12CE12C109763
:101E900031F58091F6019091F7018815990509F0C7
:101EA0005CC04616570608F058C08091000190911A
:101EB0000101009741F48DB79EB740910401509104
:101EC0000501841B950BE817F90708F055C0F0933E
:101ED000F701E093F601F90171836083A0CF8D9142
:101EE0009C91119712966C90129713967C90139771
:101EF000A815B90559F56C0142E0C40ED11CCA14ED
:101F0000DB0420F1AC014A195B09DA01129615973E
:101F100080F06282738251834083D9016D937C93F8
:101F2000E114F10471F0D7011396FC93EE9312972C
:101F300076CF22968C0F9D1FF90191838083F30148
:101F4000EFCFF093F901E093F80169CF48165906F5
:101F500008F42C017D01D3019ACFCB010E94DD0D45
:101F60007C01009749F0AE01B8010E94BF0FC80183
:101F70000E94790E870153CF10E000E050CFFB01A3
:101F8000DC0102C001900D9241505040D8F70895F5
:101F9000FB01DC0101900D920020E1F70895F89417
:021FA000FFCF71
:101FA2000000FA0180000E0B00000000D901390187
:101FB200660126029701750189010D0A00536574B5
:101FC200706F696E740054656D700050574D00005B
:00000001FF
